:100000000C945D020C94EC070C9419080C944608AF
:100010000C9473080C9485020C9485020C94A0082F
:100020000C9485020C9488190C9485020C9485021A
:100030000C9485020C9485020C9485020C94850224
:100040000C9485020C9485020C9485020C94850214
:100050000C9485020C9485020C9485020C94C804BF
:100060000C9485020C94FC1E0C94361F0C94850293
:100070000C9485020C9485020C9485020C948502E4
:100080000C9485020C9485020C9485020C948502D4
:100090000C948E030C9485020C9485020C948502BA
:1000A0000C9485020C9409170C9485023A04D5032C
:1000B000D503D503D503D503D503D5034404D50310
:1000C000D503D503D503D503D503D5034404D50300
:1000D000D503D503D503D503D503D5034C04D503E8
:1000E000D503D503D503D503D503D5036004D503C4
:1000F000D503D503D503D503D503D5034C04D503C8
:10010000D503D503D503D503D503D5030204D50301
:10011000D503D503D503D503D503D5030F04D503E4
:10012000D503D503D503D503D503D503FB03D503E9
:10013000D503D503D503D503D503D5039004D50343
:10014000D503D503D503D503D503D503EF03D503D5
:10015000D503D503D503D503D503D5031804D5039B
:10016000D503D503D503D503D503D5033104D50372
:10017000D503D503D503D503D503D5033104D50362
:10018000D503D503D503D503D503D5033104D50352
:10019000D503D503D503D503D503D5033104D50342
:1001A000D503D503D503D503D503D503E603D5037E
:1001B000D503D503D503D503D503D503EB03D50369
:1001C000D503D503D503D503D503D503E603D5035E
:1001D000D503D503D503D503D503D503EB03D50349
:1001E000D503D503D503D503D503D5036B04D503B8
:1001F000D503D503D503D503D503D503AB03D50369
:10020000D503D503D503D503D503D503AB03D50358
:10021000D503D503D503D503D503D503C003D50333
:10022000D503D503D503D503D503D5038A04D50358
:10023000D503D503D503D503D503D5038A04D41636
:10024000F415F415F415F415F415F415F415F41566
:10025000F415F415F415F415F415F415F415F41556
:10026000F415F415F415F415F415F415F415F41546
:10027000F415F415EB16F415ED16F415F415F41544
:10028000F415F415F415F415F415F415F415F41526
:10029000F415F415F415F415F415F415F415F41516
:1002A000F415F415F415F415F415F415F415F41506
:1002B000F415F415F415F415F415F415F415EF16FA
:1002C00010167516F216F51678167B16F415F41539
:1002D000F415F4157E169016F415A316F415F415FE
:1002E000A916F415AD16F415CD1688068D067E06F2
:1002F00074061C061C061C066A066006560649069D
:1003000041061C063106A206A606AA06B006A106EC
:10031000A106A106B606BC06C206C806CE06A10600
:100320009C066E616E00696E66000706050401009A
:10033000080A0B0C0D090000000200080E00000363
:100340000401000B0000000000000000000000009D
:10035000000000000408020110408040102040808E
:10036000408008020401804020100201108010200B
:1003700040400404040404030405020202020403CE
:10038000020202020606060606060404020202042F
:10039000000000002300260029002C002F00000090
:1003A0000000250028002B002E0031000000000076
:1003B000240027002A002D00300000407A10F35A54
:1003C00000A0724E18090010A5D4E80000E8764895
:1003D000170000E40B54020000CA9A3B000000E141
:1003E000F505000080969800000040420F000000D4
:1003F000A08601000000102700000000E8030000B4
:1004000000006400000000000A000000000001007D
:10041000000000002C76D888DC674F0823DFC1DF9E
:10042000AE59E1B1B796E5E3E453C63AE6519976A1
:1004300096E8E6C28426EB898C9B62ED407C6FFCDB
:10044000EFBC9C9F40F2BAA56FA5F490055A2AF71D
:100450005C936B6CF9676DC11BFCE0E40D47FEF526
:1004600020E6B500D0ED902E03009435770500808E
:10047000841E080000204E0A000000C80C333333ED
:10048000330F986E12831141EF8D2114893BE6558D
:1004900016CFFEE6DB18D1844B381BF77C1D901D70
:1004A000A4BBE424203284725E228100C9F124ECD2
:1004B000A1E53D27E911C812F21F11241FBECFEF9D
:1004C000DAE0DEBFCDBF11E0A0E0B1E0E2E7F0E5A9
:1004D00002C005900D92A03BB107D9F723E0A0EB35
:1004E000B1E001C01D92A435B207E1F714E0CAEBF8
:1004F000D4E004C02297FE010E94D425C43BD1075A
:10050000C9F70E946F110C9437280C9400001092C8
:100510001D0281E080931B0210921A0261E082E0CA
:100520000E94120761E083E00E941207E9EBF0E00D
:1005300080818E7F808380818D7F808388E480931B
:10054000B80085E48093BC000895880F8093BA00BA
:1005500008954132D8F590911D029111FCCF91E0A0
:1005600090931D0220931B022FEF2093B001109255
:10057000F501240F2093F40190931C0290911C022A
:10058000880F892B80931C0280911A02813001F11F
:1005900085EE8093BC0080911D028130E1F3809153
:1005A000F501841710F44091F501442379F0E6EF4A
:1005B000F1E0DB012FEF240F30E029503E4F919105
:1005C0009D93E217F307D9F7842F089580E00895EB
:1005D00010921A0280911C028093BB0085EC8093DC
:1005E000BC00D9CF0F93413208F043C090911D0257
:1005F0009111FCCF92E090931D0200931B029FEF9C
:100600009093B0011092F5014093F401442369F0F6
:10061000FB01A6EFB1E06F5F7F4F4150640F711D8A
:1006200091919D93E617F707D9F710921C029091CC
:100630001C02880F892B80931C0280911A02813042
:10064000F1F085EE8093BC00222321F080911D0201
:100650008230E1F38091B0018F3FE9F08091B001E9
:10066000803251F08091B001803399F084E00F9195
:10067000089581E00F91089582E00F9108951092FE
:100680001A0280911C028093BB0085EC8093BC0011
:10069000DBCF83E0EFCF80E00F910895613230F43B
:1006A00020911D02243021F082E0089581E0089518
:1006B0006093D201662361F0FC01A4EDB1E00196E4
:1006C0006150860F911D21912D93E817F907D9F7F5
:1006D00080E00895909317028093160208959093F6
:1006E0001902809318020895811104C085E880934F
:1006F000BC00089585EC8093BC00089585ED80933F
:10070000BC008091BC0084FDFCCF10921D020895B6
:1007100085EC8093BC0010921D0208951F920F92E9
:100720000FB60F9211242F933F934F935F936F93C4
:100730007F938F939F93AF93BF93EF93FF9380919A
:10074000B900887F90E0893C910578F5FC01EA5A70
:10075000FF4F0C94D22584E080931D021092D301A8
:100760001092D201E0911802F0911902099580913E
:10077000D201811105C081E08093D2011092D40191
:10078000E091D30181E08E0F8093D301F0E0EC5231
:10079000FE4F80818093BB009091D3018091D20164
:1007A0009817C8F485EC8093BC00FF91EF91BF913E
:1007B000AF919F918F917F916F915F914F913F91F9
:1007C0002F910F900FBE0F901F9018958091B1013F
:1007D000803208F4ADC085E88093BC00E6CFE0919C
:1007E000F50181E08E0F8093F5018091BB00F0E070
:1007F000EA50FE4F80839091F5018091F4019817A3
:1008000050F7D0CF80E38093B00185ED8093BC009A
:100810008091BC0084FDFCCF10921D02C6CF88E3FE
:100820008093B00185EC8093BC0010921D02BDCF77
:10083000E091F50181E08E0F8093F5018091BB007E
:10084000F0E0EA50FE4F808380911B02882309F478
:1008500086C085ED8093BC008091BC0084FDFCCFF8
:10086000DBCF83E080931D021092B10185EC809371
:10087000BC009BCF1092B00185ED8093BC008091AD
:10088000BC0084FDFCCFC8CF80911C028093BB00CC
:1008900085EC8093BC0089CF9091F5018091F401A3
:1008A000981708F465C080911B02882309F457C08B
:1008B00085ED8093BC008091BC0084FDFCCFACCF63
:1008C00080E28093B00185ED8093BC008091BC00F4
:1008D00084FDFCCFA1CF8091B1018032C8F185EDBC
:1008E0008093BC008091BC0084FDFCCF10921D025F
:1008F0006091B10170E0E0911602F091170282EB75
:1009000091E009951092B10185EC8093BC001092A2
:100910001D024BCF85EC8093BC0010921D0245CF89
:1009200085ED8093BC008091BC0084FDFCCF74CF2A
:10093000E091B10181E08E0F8093B1018091BB0005
:10094000F0E0EE54FE4F808385EC8093BC002DCF09
:10095000E091B101F0E0EE54FE4F1082C0CF81E093
:1009600080931A0284EA8093BC0010921D021DCF6E
:10097000E091F50181E08E0F8093F501F0E0EA50FF
:10098000FE4F80818093BB0085EC8093BC000DCF2F
:100990001F920F920FB60F9211242F933F938F93B4
:1009A0009F93AF93BF9380911E0290911F02A091DD
:1009B0002002B09121023091260223E0230F2D372F
:1009C00068F126E8230F0296A11DB11D209326028F
:1009D00080931E0290931F02A0932002B0932102E5
:1009E0008091220290912302A0912402B0912502CD
:1009F0000196A11DB11D8093220290932302A09322
:100A00002402B0932502BF91AF919F918F913F91A6
:100A10002F910F900FBE0F901F9018950196A11D5A
:100A2000B11DD4CF2FB7F89460911E0270911F02B0
:100A300080912002909121022FBF08953FB7F89432
:100A40008091220290912302A0912402B09125026C
:100A500026B5A89B05C02F3F19F00196A11DB11D19
:100A60003FBF6627782F892F9A2F620F711D811D36
:100A7000911D660F771F881F991F660F771F881FAC
:100A8000991F0895CF92DF92EF92FF92CF93DF9359
:100A90006B017C010E941E05EB01C114D104E1042D
:100AA000F10499F00E941E056C1B7D0B683E73409B
:100AB000A0F381E0C81AD108E108F108C851DC4F61
:100AC000C114D104E104F10469F7DF91CF91FF90E3
:100AD000EF90DF90CF9008950197009739F0880F3D
:100AE000991F880F991F02970197F1F7089578943D
:100AF00084B5826084BD84B5816084BD85B5826023
:100B000085BD85B5816085BDEEE6F0E080818160C0
:100B10008083E1E8F0E010828081826080838081C0
:100B200081608083E0E8F0E0808181608083E1E99A
:100B3000F0E0808182608083808181608083E0E951
:100B4000F0E0808181608083E1ECF0E0808184606E
:100B50008083808182608083808181608083E3ECF8
:100B6000F0E0808181608083E0ECF0E08081826051
:100B70008083E2ECF0E0808181608083EAE7F0E04E
:100B800080818460808380818260808380818160B5
:100B90008083808180688083089580930601089512
:100BA000823108F08251E82FF0E0E65DFC4FE491DD
:100BB00080917B00E3FB222720F930E0220F331FD6
:100BC00022953295307F3227207F32278F7D822BEE
:100BD00080937B00E7708091060120E4829FC00132
:100BE0001124E82BE0937C0080917A00806480934C
:100BF0007A0080917A0086FDFCCF80917800209168
:100C0000790090E0922B08951F93CF93DF93182FD4
:100C1000EB0161E00E94D4062097E1F0CF3FD105BF
:100C200071F0E12FF0E0EA5CFC4F449150E0FA01F2
:100C30003197EE30F10550F0C038D1055CF061E03D
:100C4000812FDF91CF911F910C941207EB58FE4F2B
:100C50000C94D22560E0812FDF91CF911F910C94ED
:100C600012078091C20088608093C2008091C20008
:100C70008B7F8093C200C093D200DF91CF911F91F0
:100C800008958091C00080628093C000C093D0001E
:100C9000F4CF8091C00080688093C0008091C00034
:100CA0008F7B8093C000C093CF00E7CF80919000EE
:100CB000886080939000D0939D00C0939C00DDCF0E
:100CC00080919000806280939000D0939B00C093AD
:100CD0009A00D3CF80919000806880939000D09349
:100CE0009900C0939800C9CF809180008062809362
:100CF0008000D0938B00C0938A00BFCF809180008A
:100D0000806880938000D0938900C0938800B5CF1D
:100D100084B5806884BDC7BDB0CF84B5806284BD12
:100D2000C8BDABCF90E0FC013197EE30F10548F43F
:100D3000ED57FE4F0C94D2258091C200877F80939F
:100D4000C200089584B58F7784BD089584B58F7DE2
:100D500084BD0895809180008F77809380000895EE
:100D6000809180008F7D8093800008958091900015
:100D70008F77809390000895809190008F7D80936D
:100D80009000089580919000877F8093900008954F
:100D90008091C0008F778093C00008958091C0003B
:100DA0008F7D8093C0000895CF93DF9390E0FC0186
:100DB000EC5AFC4F2491FC01EE58FC4F849188239F
:100DC000B9F090E0880F991FFC01E455FC4FA59104
:100DD000B49182569C4FFC01C591D4919FB7662374
:100DE00051F06230A1F0F8948C91822B8C939FBFCC
:100DF000DF91CF910895F8948C91209582238C9364
:100E00008881822388839FBFDF91CF910895F894D2
:100E10008C91322F309583238C938881822B888309
:100E20009FBFE6CF0F931F93CF93DF931F92CDB752
:100E3000DEB7282F30E0F901EA5CFC4F8491F9011C
:100E4000EC5AFC4F0491F901EE58FC4F1491112318
:100E500099F081111BC0E12FF0E0EE0FFF1FE25669
:100E6000FC4FA591B4918FB7F8949C9161110AC081
:100E7000009590239C938FBF0F90DF91CF911F918E
:100E80000F910895902B9C938FBFF6CF69830E949A
:100E900092066981E0CFCF93DF93282F30E0F901EC
:100EA000EA5CFC4F8491F901EC5AFC4FD491F901B2
:100EB000EE58FC4FC491CC23B1F0811119C0EC2F36
:100EC000F0E0EE0FFF1FE057FC4FA591B4912C917D
:100ED0002D2381E090E019F0DF91CF91089580E01B
:100EE000DF91CF91089580E090E0DF91CF91089558
:100EF0000E949206E4CF8530E0F4E82FF0E0EE0F98
:100F0000FF1FE95DFD4F71836083823021F188F11D
:100F1000833081F08430D9F580916A0042955295F2
:100F2000507F5427407F54278F7C842B80936A0006
:100F3000EE9A08958091690000245695479507948C
:100F4000569547950794542F402D8F73842B80938B
:100F50006900EB9A08958091690042955295507FFF
:100F60005427407F54278F7C842B80936900EA9A12
:100F70000895813061F480916900440F551F440F3A
:100F8000551F837F842B80936900E99A089580918F
:100F900069008C7F842B80936900E89A08958530DE
:100FA00080F4823089F090F0833061F0843091F4E5
:100FB000EE98E82FF0E0EE0FFF1FE95DFD4F118284
:100FC00010820895EB98F5CFEA98F3CF813011F4B1
:100FD000E998EFCFE898EDCF1F920F920FB60F92DE
:100FE00011242F933F934F935F936F937F938F932E
:100FF0009F93AF93BF93EF93FF93809127029091BC
:101000002802892B29F0E0912702F0912802099506
:10101000FF91EF91BF91AF919F918F917F916F91D0
:101020005F914F913F912F910F900FBE0F901F90A6
:1010300018951F920F920FB60F9211242F933F9382
:101040004F935F936F937F938F939F93AF93BF93D0
:10105000EF93FF938091290290912A02892B29F026
:10106000E0912902F0912A020995FF91EF91BF9139
:10107000AF919F918F917F916F915F914F913F9130
:101080002F910F900FBE0F901F9018951F920F92E7
:101090000FB60F9211242F933F934F935F936F934B
:1010A0007F938F939F93AF93BF93EF93FF93809121
:1010B0002B0290912C02892B29F0E0912B02F091C8
:1010C0002C020995FF91EF91BF91AF919F918F9164
:1010D0007F916F915F914F913F912F910F900FBE34
:1010E0000F901F9018951F920F920FB60F92112418
:1010F0002F933F934F935F936F937F938F939F9320
:10110000AF93BF93EF93FF9380912D0290912E02A6
:10111000892B29F0E0912D02F0912E020995FF9183
:10112000EF91BF91AF919F918F917F916F915F915F
:101130004F913F912F910F900FBE0F901F901895D8
:101140001F920F920FB60F9211242F933F934F933C
:101150005F936F937F938F939F93AF93BF93EF931F
:10116000FF9380912F0290913002892B29F0E0911A
:101170002F02F09130020995FF91EF91BF91AF914D
:101180009F918F917F916F915F914F913F912F919F
:101190000F900FBE0F901F901895A3E1B0E0E3ED04
:1011A000F8E00C94FA257C011B016A01FC0117820E
:1011B0001682838181FF66C3BE016F5F7F4F4B0143
:1011C000F7019381F10193FD859193FF81911F01B7
:1011D000882309F453C3853239F493FD859193FF35
:1011E00081911F01853239F4B70190E00E94852773
:1011F00056016501E5CF10E0512C20E02032A0F42B
:101200008B3269F030F4803259F0833269F4206116
:101210002CC08D3239F0803339F4216026C0226031
:10122000246023C0286021C027FD27C030ED380F7F
:101230003A3078F426FF06C0FAE01F9F300D1124E3
:10124000132F13C06AE0569E300D1124532E2062D6
:101250000CC08E3221F426FD11C3206406C08C36EA
:1012600011F4206802C0883641F4F10193FD8591A4
:1012700093FF81911F018111C1CF9BEB980F933098
:1012800018F42061805E06C09BE9980F933008F047
:10129000AAC12F7E26FF16E02F73722E853621F409
:1012A000F22FF0647F2E08C0863621F4622F60682A
:1012B000762E02C01111115077FE07C01C3348F47E
:1012C00044244394410E27E00BC0183030F4212F02
:1012D00006C027E04CE3442E03C027E017E0412C72
:1012E000560174E0A70EB11CF60160817181828104
:1012F0009381042DA4010E948E266C01098100FFB8
:1013000002C003FF06C071FC07C072FC08C0612C5C
:1013100008C03DE2632E05C02BE2622E02C090E2BF
:10132000692E802F8C7099F1662011F084E001C045
:1013300083E0851510F0512C0BC0581A73FC08C0BF
:10134000B70180E290E00E9485275A94C9F7F3CF55
:10135000662029F0B701862D90E00E94852703FDC5
:1013600003C006E213E002C002E213E0F72DF071C1
:101370007F2EF8018491882309F476C2711080527F
:10138000B70190E00E9485270F5F1F4FF2CF77FED5
:101390000FC04C0C04FF04C08A81813309F44A94C5
:1013A000141474F5F8E0F41578F588E0482E2CC094
:1013B00076FC2AC0812F90E08C159D059CF06CEF87
:1013C000C6166FEFD60674F0772D7068772E0AC0B8
:1013D000E2E0F0E0EC0FFD1FE10FF11D80818033B2
:1013E00019F411501111F4CF77FE0EC04424439428
:1013F000410E812F90E0C816D9062CF41C1904C0A8
:101400004424439401C010E077FE07C01C141D045F
:101410003CF496012F5F3F4F05C025E030E002C04D
:1014200021E030E0662011F02F5F3F4F112331F0B3
:10143000412F50E04F5F5F4F240F351F452D50E087
:101440002417350714F4521A01C0512C872D8970C6
:1014500049F4552039F0B70180E290E00E948527D9
:101460005A94F7CF662029F0B701862D90E00E94AC
:10147000852773FC09C0552039F0B70180E390E05F
:101480000E9485275A94F7CF77FE5FC09C2D8D2D43
:10149000D7FE02C090E080E0692E782E40E050E058
:1014A000C601841991099D878C87960126193709F1
:1014B000280D391D812F90E0EE27FF27E81BF90B3F
:1014C000FF87EE87FFEF6F167F0669F4B7018EE2A4
:1014D00090E02B8B3A8B488B598B0E94852759893A
:1014E00048893A892B89C614D70454F06C857D85C8
:1014F000661577052CF4F901E40FF51F818101C011
:1015000080E371E0671A71084F5F5F4FEE85FF85DA
:101510006E167F066CF0B70190E02B8B3A8B488BF0
:10152000598B0E9485272B893A8948895989CACFC6
:101530006C147D0439F49A81963318F4953311F4C0
:1015400004FF81E3B70190E04BC08A81813309F049
:101550000F7EB70190E00E948527111105C074FE2F
:1015600018C085E490E017C0B7018EE290E00E94B9
:10157000852782E066246394680EF401E80FF11D6C
:101580008081B70190E00E948527115041F3862D9C
:10159000F1CF85E690E0B7010E948527D7FC05C012
:1015A000C114D10439F404FF05C0D194C194D10809
:1015B0008DE201C08BE2B70190E00E94852780E3B5
:1015C0006AE0C616D1042CF08F5FFAE0CF1AD1087A
:1015D000F7CFB70190E00E948527B701C601C096FA
:1015E0000E94852741C1833631F0833779F08335F6
:1015F00009F058C021C0560172E0A70EB11CF601D7
:101600008081898301E010E0640114C05601F2E09A
:10161000AF0EB11CF601C080D18026FF03C0612F40
:1016200070E002C06FEF7FEFC6012B8B0E947A271C
:101630008C012B892F7715C05601F2E0AF0EB11C3B
:10164000F601C080D18026FF03C0612F70E002C088
:101650006FEF7FEFC6012B8B0E9466278C012B89D1
:101660002068722E23FD1AC0852D90E008171907F7
:10167000A8F4B70180E290E00E9485275A94F4CF45
:10168000F60177FC859177FE81916F01B70190E0BB
:101690000E94852751105A94015011090115110516
:1016A00079F7E2C0843611F0893651F5560127FFEB
:1016B00009C0F4E0AF0EB11CF60160817181828136
:1016C00093810AC0F2E0AF0EB11CF6016081718116
:1016D000882777FD8095982F022F0F7697FF08C0F7
:1016E00090958095709561957F4F8F4F9F4F0068C3
:1016F0002AE030E0A4010E94D927C82EC8183EC0B5
:10170000022F853721F40F7E2AE030E01DC0097FCB
:101710008F3691F018F4883559F0B0C0803719F041
:10172000883711F0ABC0006104FF09C0046007C036
:1017300024FF08C0066006C028E030E005C020E1B4
:1017400030E002C020E132E0560107FF09C0F4E0BA
:10175000AF0EB11CF601608171818281938108C056
:10176000F2E0AF0EB11CF6016081718180E090E083
:10177000A4010E94D927C82EC8180F7706FF0BC0F6
:10178000202F2E7FC11650F404FF0AC002FD08C0AE
:10179000202F2E7E05C0DC2C202F03C0DC2C01C0A6
:1017A000D12E24FF0DC0FE01EC0DF11D8081803390
:1017B00011F4297E09C022FF06C0D394D39404C03B
:1017C000822F867809F0D39423FD13C020FF06C032
:1017D0001C2DD51418F4150D1D19D52CD51468F42D
:1017E000B70180E290E02B8B0E948527D3942B8950
:1017F000F5CFD51410F45D1801C0512C24FF12C090
:10180000B70180E390E02B8B0E9485272B8922FF74
:1018100017C021FF03C088E590E002C088E790E090
:10182000B7010CC0822F867859F021FD02C080E2FA
:1018300001C08BE227FD8DE2B70190E00E94852771
:10184000C11638F4B70180E390E00E94852711505B
:10185000F7CFCA94F401EC0DF11D8081B70190E03F
:101860000E948527C110F5CF552009F4C2CCB701DD
:1018700080E290E00E9485275A94F6CFF701868196
:10188000978102C08FEF9FEF6396E2E10C941626DA
:10189000CF93DF93EC0181E391E0998388838A857C
:1018A0009B85009711F00E94EC1D8C859D8500970B
:1018B00011F00E94EC1D8E859F85009711F00E940B
:1018C000EC1DDF91CF910895CF93DF93EC010E943F
:1018D000480CCE010E94EC1DDF91CF910895CF936B
:1018E000DF93EC0181E391E0998388835B834A83F2
:1018F0003D832C831F821E82198618861B8A1A8AB2
:101900001D8A1C8A1F8A1E8A198E188E1B8E1A8E9B
:101910001D8E1C8E1E8E78A36F8F8CE090E00E942F
:10192000E91DFC0111821082138212821582148239
:101930001782168211861086138612869B878A87E5
:101940008CE090E00E94E91DFC011182108213825C
:1019500012821582148217821682118610861386CF
:1019600012869D878C878CE090E00E94E91DFC0127
:1019700081E99FEF91838083138212821582148202
:10198000178216821186108613861286FF87EE87CD
:10199000DF91CF910895FC01848995890895FC0118
:1019A00060897189882777FD8095982F0E94BA23D6
:1019B0002DED34ED40ED52E40E941F230895FC010B
:1019C00062897389882777FD8095982F0E94BA23B2
:1019D0002DED34ED40ED52E40E941F2308958F92C7
:1019E0009F92AF92BF92CF92DF92EF92FF92CF93EE
:1019F000DF93EC0168897989882777FD8095982F96
:101A00000E94BA232DED34ED40ED52E40E941F23D5
:101A10004B015C016A897B89882777FD8095982F27
:101A20000E94BA232DED34ED40ED52E40E941F23B5
:101A30006B017C01A5019401C501B4010E94C12480
:101A40004B015C01A7019601C701B6010E94C124A8
:101A50009B01AC01C501B4010E94B7220E94282558
:101A60002DEC3CEC4CEC5EE30E94BD24181664F0B7
:101A700080E0DF91CF91FF90EF90DF90CF90BF900B
:101A8000AF909F908F9008950E9412052E893F89F4
:101A9000621B730B810991096F3E724081059105AC
:101AA00038F30E941205288D398D621B730B810952
:101AB0009109693E734081059105D0F28E8D8111A7
:101AC000D7CF0E9412052C8D3D8D621B730B8109AF
:101AD0009109693E73408105910550F20E941205FB
:101AE000798F688F81E0C5CFCF93DF93EC010E949F
:101AF00012052E893F89621B730B81099109693E8A
:101B0000734081059105C0F08E819F8166277727FC
:101B1000681B790B0E94671A6EEE72E080E090E01D
:101B20000E94420560E070E080E090E00E94671A49
:101B30000E9412057F8B6E8BDF91CF910895CF931A
:101B4000DF93EC010E9412052E893F89621B730B03
:101B500081099109693E734081059105C0F08E812C
:101B60009F81BC019195819591090E94671A6EEE43
:101B700072E080E090E00E94420560E070E080E06A
:101B800090E00E94671A0E9412057F8B6E8BDF9196
:101B9000CF910895FC0180859185BC010E94671A50
:101BA0000895FC0180859185919581959109BC01ED
:101BB0000E94671A0895FC0177836683848195816A
:101BC000208531858217930710F491878087828161
:101BD00093818617970710F49783868308950F9350
:101BE0001F93CF93DF93EC018B018A8D9B8D86171A
:101BF0009707F8F481E08E8F7B8F6A8F0E94120521
:101C00007D8F6C8F198708878C819D818017910744
:101C100010F4998788878A819B812E813F81821762
:101C2000930710F49F838E83DF91CF911F910F91C3
:101C300008951E8E7B8F6A8FE5CFEF92FF920F93F0
:101C40001F93CF93DF93EC018B01EF8DF8A180857B
:101C500091850E94651CEF8DF8A1848195810E9479
:101C60005218EF8DF8A1E084F184F7018081918111
:101C700097FDD7C095958795959587959595879567
:101C800095958795EA85FB85208531853387228761
:101C900026813781318720872481358137832683C8
:101CA000228133813583248320813181820F931FE8
:101CB000938382839F01245F3F4F349660E070E0FE
:101CC00002C081919191680F791F2E173F07C9F7C4
:101CD000882777FD8095982F0E94BA2320E030E076
:101CE00040EA50E40E941F230E94F5230E948723AC
:101CF000798B688BF7018281938197FD96C09595CA
:101D00008795959587959595879595958795EC8574
:101D1000FD8520853185338722872681378131876C
:101D2000208724813581378326832281338135833F
:101D3000248320813181820F931F938382839F01AB
:101D4000245F3F4F349660E070E002C08191919132
:101D5000680F791F2E173F07C9F7882777FD8095F1
:101D6000982F0E94BA2320E030E040EA50E40E941D
:101D70001F230E94F5230E9487237B8B6A8BF70128
:101D80008481958197FD4FC0959587959595879509
:101D90009595879595958795EE85FF852085318565
:101DA00033872287268137813187208724813581B7
:101DB00037832683228133813583248320813181B7
:101DC000820F931F938382839F01245F3F4F34963A
:101DD00060E070E002C081919191680F791F2E1729
:101DE0003F07C9F7882777FD8095982F0E94BA236F
:101DF00020E030E040EA50E40E941F230E94F523D7
:101E00000E9487237D8B6C8BE881F9810480F581AA
:101E1000E02DB801CE010995CDB7DEB7E6E00C9410
:101E200022260F9627CF0F96AFCF0F9668CF0F932E
:101E30001F93CF93DF93EC018B010E941D0EE8816D
:101E4000F9810680F781E02DB801CE010995DF9177
:101E5000CF911F910F91089526E431E0FC01318369
:101E600020830E94480C0895CF93DF93EC0186E411
:101E700091E099838883CE010E94480CCE010E9494
:101E8000EC1DDF91CF910895CF93DF93EC010E9479
:101E9000CB0C863B934024F01BA2DF91CF91089599
:101EA00081E08BA3DF91CF910895CF93DF93EC0175
:101EB0006FEF7FEF80E090E00E9451200E94BA23F4
:101EC00020E03FEF4FE757E40E941F232FE832EC5A
:101ED00045EF5CE30E941B2387FF03C08BA188238F
:101EE00091F1CE010E94CB0C873B23E0920740F595
:101EF0008C3B22E09207B0F560EE71E0CE010E94CB
:101F0000EF0DCE010E94CA0D66E970E0CE010E947D
:101F1000EF0C882391F04CE062E370E08BE20E94CA
:101F20004515CE010E94D10D6EEE72E080E090E08A
:101F30000E944205CE010E949F0DDF91CF9108952E
:101F400060E570E0DBCF6FEF7FEF80E090E00E9414
:101F50005120CE0160FF03C00E94740DC2CF0E94C9
:101F60009F0DBFCFBC0180E090E00E94B82320E02D
:101F700030E04FE254E40E94B62220E030E04AE72D
:101F800053E40E941F239B01AC0160E070E080E8F5
:101F90009FE30E94B62220E030E048EC53E40E9428
:101FA000C1240E94F52320E030E040EA52E40E9480
:101FB000B7220E948C23A2CFCF93DF93EC010E9423
:101FC0006F0C86E491E0998388831BA289E391E0FA
:101FD0009AA389A364E670E0CE010E94DB0DDF9135
:101FE000CF9108955B98539A08950F931F93822F72
:101FF0003091E2001092E2005091E9001092E90065
:102000007091F0001092F00010E05A99116052990E
:10201000126000E02B9901602399026020E028996A
:10202000216020992260A22F20E0479921603F99EA
:102030002260E22F20E05D99216055992260F22F05
:10204000442309F466C05A9A529A882309F465C059
:1020500060FF8BC02B9A239A61FF8BC0289A209A2D
:1020600062FF8BC0479A3F9A63FD8BC05D98559A7B
:102070005B9A539A85E08A95F1F700005B98539A32
:1020800025E02A95F1F700002F2F21FB0EF055983F
:1020900020FB0EF05D980EF45D9A21FB0EF4559A2C
:1020A0002E2F21FB0EF03F9820FB0EF047980EF4E8
:1020B000479A21FB0EF43F9A2A2F21FB0EF020981D
:1020C00020FB0EF028980EF4289A21FB0EF4209A9B
:1020D00001FB0EF0239800FB0EF02B980EF42B9AC8
:1020E00001FB0EF4239A11FB0EF0529810FB0EF038
:1020F0005A980EF45A9A11FB0EF4529A1092E90073
:102100007093F0005093E9003093E2001F910F911B
:1021100008955A98529A81119BCF862F90E09595F9
:10212000879595958795959587959595879580FD44
:102130002AC02B98239A81FF2AC0289A209A82FFCE
:102140002AC0479A3F9A83FD2AC05D98559A5B9AA8
:10215000539A85E08A95F1F700005B98539A25E041
:102160002A95F1F7000060FD75CF2B98239A61FD49
:1021700075CF2898209A62FD75CF47983F9A63FFE4
:1021800075CF5D9A74CF2B9A239A81FDD6CF28986C
:10219000209A82FDD6CF47983F9A83FFD6CF5D9A8B
:1021A000D5CFA3E0B0E0E7EDF0E10C9406260E9465
:1021B000770540E051EE60E070E086EA92E00E9430
:1021C000711F83E492E00E948E128CE090E00E94E6
:1021D000E91D8C0187E090E00E94E91D7C010E94CE
:1021E000DF128EE591E0F70191838083F801F1829F
:1021F000E08281E090E00E94E91DF80193838283F0
:102200008DE090E00E94E91D7C010E947B17F8019F
:10221000F582E48281E090E00E94E91DF801978355
:1022200086838EE290E00E94E91D7C010E94721A72
:10223000F801F186E0868DE090E00E94E91D7C01C6
:102240000E94E01DF801F386E2861093420200939B
:10225000410284E290E00E94E91D8C0160914102FC
:102260007091420220E931E044E650E00E94DC0F28
:102270001093400200933F02E0914102F09142022C
:102280008481958124E1298326E12A8324E02B831C
:102290002BE043E0BE016F5F7F4F0E949117E091FA
:1022A0004102F091420242E050E064E070E080853B
:1022B00091850E94A31CE0914102F0914202808529
:1022C00091850E94F11A80E00E94D0050E9448206A
:1022D00080E00E9474172396E6E00C942226CF93A8
:1022E000DF93CDB7DEB728970FB6F894DEBF0FBEE9
:1022F000CDBF0E94D11083E392E00E9435198E0178
:102300000F5F1F4F3EE4E32E31E0F32E0E941205D3
:102310002091310230913202621B730B64367105D9
:10232000A8F380913F02909140020E94170F809184
:102330003F02909140020E94CF0C4B015C018091C2
:102340003F02909140020E94CF0C9B01AC01C5015D
:10235000B4010E94C1244B015C0180913F02909125
:1023600040020E94DF0C2B013C0180913F029091C2
:1023700040020E94DF0C9B01AC01C301B2010E942C
:10238000C1249B01AC01C501B4010E94B7220E9487
:1023900028259F938F937F936F93FF92EF921F93C4
:1023A0000F930E94B72761E686EA92E00E94171E0B
:1023B000B80186EA92E00E943B1E0E9412057093CB
:1023C0003202609331020FB6F894DEBF0FBECDBF6C
:1023D0009DCF21E041E06EE083E392E00E9440194E
:1023E00088E591E0909334028093330208958091C0
:1023F000730290E020917402821B9109089520914C
:10240000740280917302281750F4E22FF0E0EB5829
:10241000FD4F808190E02F5F2093740208958FEF2D
:102420009FEF0895E091740280917302E81730F4F1
:10243000F0E0EB58FD4F808190E008958FEF9FEF23
:1024400008950895A0E0B0E0E8E2F2E10C940426DB
:102450008C01862F6A0120914F022223D9F0411569
:10246000510589F0C62FD72F7E01E40EF51E699124
:10247000D801ED91FC910190F081E02DC801099502
:10248000CE15DF05A1F7C601CDB7DEB7E8E00C94A5
:1024900020260AC0642F972F0E944E03C601CDB795
:1024A000DEB7E8E00C942026A1E0B0E0EAE5F2E136
:1024B0000C940A26698320914F02222321F1209156
:1024C00050022032A0F480915102E82FF0E0EE5A41
:1024D000FD4F998190838F5F8093510280935002CA
:1024E00081E090E02196E2E00C94262617C021E0DE
:1024F00030E0FC013383228380E090E02196E2E02B
:102500000C9426260BC061E0CE0101960E944E037A
:1025100081E090E02196E2E00C942626109274026D
:102520001092730210925102109250020E94870280
:102530000895862F413208F040E221E065E772E01D
:102540000E94A9021092740280937302089581E0A0
:1025500080934F02609372021092510210925002C7
:1025600008950F93062F21E04091500262E572E03A
:10257000809172020E94F202109251021092500257
:1025800010924F020F91089561E00E94B1120895D8
:10259000109246021092450288EE93E0A0E0B0E06F
:1025A0008093470290934802A0934902B0934A0255
:1025B0008AE691E090934402809343020895FC01DF
:1025C000138212828AE791E09183808314820895B6
:1025D0001F93CF93DF93EC01162F686020E040E05B
:1025E0000E9440131D83DF91CF911F910895CF93D7
:1025F000DF93EC01E881F9810480F581E02D0995F4
:1026000021E040E063E0CE010E9440138FE991E4B5
:102610000197F1F700C0000021E040E063E0CE0147
:102620000E94401387E592E00197F1F700C0000097
:1026300021E040E063E0CE010E94401321E040E051
:1026400062E0CE010E94401320E040E068E2CE014B
:102650000E94401360E0CE010E94E812CE010E9469
:10266000691320E040E066E0CE010E94401382E062
:102670008E8364E0CE010E94E812DF91CF9108952D
:10268000A3E0B0E0E6E4F3E10C9408268C01DC0161
:1026900014968C91149781110CC081E014968C9340
:1026A000C8012B834A8369830E94F71269814A819A
:1026B0002B81D801ED91FC910680F781E02DC801B6
:1026C0000995B5ECBA95F1F700002396E4E00C9477
:1026D000242620E040E061E00E9440138FE39FE168
:1026E0000197F1F700C00000089520E041E00E944A
:1026F000401381E090E00895A0E0B0E0E2E8F3E16B
:102700000C9404267C016A014115510569F08B0186
:10271000EA01F80161918F0120E041E0C7010E94C8
:10272000401321972097A9F7C601CDB7DEB7E8E09F
:102730000C942026109271009B014617570708F44D
:102740009A0146983E9860E860939000109291003C
:10275000609392003E9A892BB9F48E98869A509392
:102760009700409396004150510950939500409333
:102770009400309399002093980082E88093900011
:1027800089E18093910008958E9AE8CF46983E9A09
:10279000E0E9F0E082E080831092910010927100F5
:1027A0001082109299001092980010929700109247
:1027B0009600109295001092940086988E98089535
:1027C00040919702E0919B02F0919C02442339F0E2
:1027D00084919FEB980F9A3138F4805E0895808140
:1027E0009FEB980F9A31C8F3803259F49F012F5F05
:1027F0003F4F30939C0220939B02EF2B11F0F90185
:10280000E5CF0895CF93DF930E94E01390ED980FEA
:10281000C0E0D0E09A30F8F49E01220F331FCC0FB5
:10282000DD1FCC0FDD1FCC0FDD1FC20FD31FC80F64
:10283000D11D87FDDA95E09780919B0290919C02D3
:10284000019690939C0280939B020E94E01390ED6E
:10285000980F9A3008F3CE01DF91CF91089510922E
:1028600072001092C00084E08093C10089E08093E0
:10287000C20081E08093C300EFEBF0E083E080834F
:1028800088EE8093D10010821092D200579A7894EB
:102890000895A9E0B0E0EFE4F4E10C94FA251B01FF
:1028A000498720919D02222309F4B9C01092140196
:1028B0008C0197FDC2C08832910508F4A8C001318F
:1028C00027E2120708F0A0C080E092E1AAE7B0E09A
:1028D00021E030E040E050E02A833B834C835D837D
:1028E00031E03983480196948794A12CB12C2801BA
:1028F000612C712CBC01CD01680D791D8A1D9B1DB9
:10290000A30192010E94B32569017A01EE24FF24FC
:10291000C11444E0D406E104F10408F4B3C080E03B
:102920008887CA80DB80EC80FD8058855F5F588790
:1029300020E032E14AE750E0088404C0559547950D
:10294000379527950A94D2F7C701B6010E946D25E5
:10295000680D791D8A1D9B1DA30192010E94B3255C
:1029600044275527211584E0380741055105E8F62D
:10297000888569017A01BB24B394B80EE981EA30F5
:1029800009F46EC0083EF3E01F0759F09101D80129
:102990000E94D82528EE33E040E050E00E94B325A5
:1029A0001901109272008091C100807F8B29809361
:1029B000C100BB27AF2D9E2D8D2D8093BF00C092EF
:1029C000D1002985203108F02FE080E190E0821BC2
:1029D000910904C0F694E794D794C7948A95D2F7E6
:1029E0008D2D99278093BF00C092D20030929A0219
:1029F0002092990289B38FEF89BB84E080937200A3
:102A00002996E2E10C94162600E117E25DCF08E278
:102A100010E0013127E2120708F456CFF5CF21E08C
:102A200020939D028E839F830E942F149F818E810D
:102A3000109214018C0197FF3ECF1F7700391105CA
:102A4000F0F080E094EBA4ECB4E02AE030E040E069
:102A500050E02A833B834C835D833AE0398342CF45
:102A600098012B5F3F4FADECBCEC0E94D8258C0148
:102A700016950795169507951695079583CF00E946
:102A800010E0DFCFBB24B39479CFCF93DF93FB016A
:102A90008F3F09F45DC0442309F45AC0813160F5C9
:102AA000C0E0D0E060E070E050E0DB01AA0FBB1FA7
:102AB000AE57BE4F2D913C915730B1F10C2E02C054
:102AC000220F331F0A94E2F7523008F450C02B5FF4
:102AD0003F4FADECBCEC0E94D82596958795969516
:102AE000879596958795403108F04FE0BF010E9489
:102AF0004914DF91CF9108958051803690F55BEABB
:102B0000859F512D1124569556955695C52F24EF26
:102B10002503B0011124680F711D6C30710528F276
:102B200020E030E0573051F6002436952795079481
:102B3000369527950794322F202D2E5F3F4FADEC11
:102B4000BCEC0E94D8259695879596958795CBCF16
:102B500040E0BF0188EE93E00E944914DF91CF91DD
:102B60000895C7E0D0E06BE070E057E09ECFC90168
:102B70009058B9CFA0E0B0E0E0ECF5E10C94FF256F
:102B80009090130180919602882321F06091950224
:102B9000611138C064E0862E70EDA72E77E0B72E65
:102BA000E4E0CE2ED12CF4EFEF2EFF24F3940FE0CF
:102BB00010E0C0ECDDE5772473940E94E0132091CF
:102BC0009B0230919C022F5F3F4F30939C022093D9
:102BD0009B02482F552747FD5095652F752FFA0109
:102BE000B197E635F10550F010929C0210929B02CD
:102BF000CDB7DEB7EDE00C941B260BC1E15EFE4FB6
:102C00000C94D22570E040E088EE93E00E944914D5
:102C100010929502CDB7DEB7EDE00C941B26F9C0FB
:102C2000E12C8BE0F92CFF0CF90CFF0CFF0CF80EDB
:102C30000E94E0130DC020919B0230919C022F5FF7
:102C40003F4F30939C0220939B02F3940E94E01329
:102C5000982F977F933279F38D3279F420919B02EC
:102C600030919C022F5F3F4F30939C0220939B0238
:102C7000FA940E94E0138D3289F300910D011091B6
:102C80000E018153883008F4B5C0E801D695C79588
:102C90000EC020919B0230919C022F5F3F4F3093DA
:102CA0009C0220939B020C0F1D1FD695C7950E9476
:102CB000E0138E3271F380919602882339F09801E7
:102CC0003695279520939502021B110940910B011F
:102CD000EE2009F48DC08FEFB8010E944515CDB7E5
:102CE000DEB7EDE00C941B2694C0E12C80E09ACF77
:102CF000E12C85E097CFE12C87E094CF0E9402146D
:102D0000BC019093100180930F018091110190916B
:102D100012010E947D2570930E0160930D014DCF2D
:102D20000E94E0138C3609F471C0709296021092E2
:102D3000950280919B0290919C02019690939C0237
:102D400080939B023ACF0E940214982E8093130125
:102D500034CFEE24E39480E065CF0E940214BC01DE
:102D6000CE010E947D25CB01880F991F660F771F2A
:102D7000660F771F660F771F860F971F90931201BC
:102D80008093110160910F01709110010E947D25C7
:102D900070930E0160930D0110CF0E940214909366
:102DA0000C0180930B0109CF80921301B0921201A4
:102DB000A0921101D0921001C0920F01F0920E0169
:102DC000E0920D0110930C0100930B0110929602FA
:102DD00034E0932EF2CE9A94F0CE9394EECEE12C82
:102DE00089E020CFE12C82E01DCFE12C84E01ACFD6
:102DF0008F2D72CFC0911101D09112010E94021447
:102E0000BC01CE010E947D258B013FCF109296021E
:102E100090CF1F920F920FB60F9211242F933F93D2
:102E20004F935F936F937F938F939F93AF93BF93D2
:102E3000EF93FF938091990290919A029C01215007
:102E4000310930939A0220939902892B01F510924F
:102E5000720078948091C100807F84608093C1006B
:102E600083E08093BF0088EE8093D1001092BF0072
:102E70001092D20081E08093140180919B02909186
:102E80009C02892B21F080919802882389F0FF9180
:102E9000EF91BF91AF919F918F917F916F915F91D2
:102EA0004F913F912F910F900FBE0F901F9018954B
:102EB0000E94BA15ECCF80911401882341F08091D3
:102EC0009B0290919C02892B51F00E94BA1520918F
:102ED0009B0230919C0281E0232B21F0089520E099
:102EE00030E0F9CF80E00895809398028111089531
:102EF0000E945B170895FC011182108212828FEFED
:102F0000838315821482168285EA91E092878187F5
:102F100082E492E09487838784EA91E090878783B4
:102F20000895A1E0B0E0E7E9F7E10C9406267C0102
:102F3000162F072FDC0113962C931397242F30E0C4
:102F4000B901660F771F620F731F8D919C914983A2
:102F50000E94762049810097D9F0F7019183808300
:102F600042834423A9F0512FE12FF02FBC0120E030
:102F700030E003C0D7016D917C918191DB01A20FFC
:102F8000B31F8C932D5F3F4F8E2F851B841790F3BB
:102F90002196E6E00C942226A0E0B0E0E2EDF7E115
:102FA0000C9403268C016B01B42EC42FD0E0CC0FFF
:102FB000DD1FBE01F801848195810E9476207C018D
:102FC000009741F0AE01B6010E947127F801F58229
:102FD000E482B682CDB7DEB7E9E00C941F261F93DA
:102FE000CF93DF93EC019A819923D1F010E003C0D5
:102FF0001F5F1917A8F4412F50E09A01220F331FC9
:10300000240F351FE881F981E20FF31F80818E3193
:1030100078F762E00E94D4069A811F5F191758F36F
:10302000DF91CF911F910895CF93DF93EC018B81B6
:103030008E3158F460E00E94120761E08B810E949B
:10304000D4068B859C850E946C05DF91CF910895F5
:10305000ACE0B0E0EEE2F8E10C9408268C010E94AE
:10306000EF17C8010E941418F80184819581892BFB
:1030700029F02C96E4E00C94242614C08CE0E5E1C1
:10308000F1E0DE01119601900D928A95E1F746E09C
:10309000BE016F5F7F4FC8010E94CC172C96E4E001
:1030A0000C942426A0E0B0E0E8E5F8E10C940426B6
:1030B000EC010E9428188A818823B1F040E0242F77
:1030C00030E0C901880F991F820F931FE881F981B1
:1030D000E80FF91F1282E881F981E80FF91F1182C8
:1030E0004F5F8A81481758F38E81882309F47CC08A
:1030F000F12C8F2D90E0880F991FEC81FD81E80F56
:10310000F91FC080D1804F815885B60180E090E0E2
:103110000E949A1389859A850E946C052A81222330
:1031200011F1E12C03C0E394E216E8F48E2D90E057
:103130008C01000F111F080F191FE881F981E00FA2
:10314000F11F80818E3178F70E944B07892B39F46B
:10315000E881F981E00FF11F81818F5F81832A81EE
:10316000E394E21618F30E94C6138B859C850E9497
:103170006C054F815885B60181E090E00E949A135A
:1031800089859A850E946C052A81222311F1D12C10
:1031900003C0D394D216E8F48D2D90E08C01000F7B
:1031A000111F080F191FE881F981E00FF11F8081BD
:1031B0008E3178F70E944B07892B39F4E881F98129
:1031C000E00FF11F82818F5F82832A81D394D21610
:1031D00018F30E94C6138B859C850E946C05F3949E
:1031E0008E81F81608F485CFCDB7DEB7E8E00C94F1
:1031F0002026CF93DF93EC01E881F9810190F081E3
:10320000E02DCE0109958823B9F36AE070E080E0F3
:1032100090E00E944205E881F9810190F081E02D63
:10322000CE010995882341F3DF91CF910895CF9383
:10323000DF93EC01E881F9810190F081E02DCE016E
:1032400009958111F7CF6AE070E080E090E00E947C
:103250004205E881F9810190F081E02DCE010995C8
:103260008111E8CFDF91CF910895CF93DF93EC01E7
:103270000E94F918CE010E941719DF91CF9108958D
:10328000FC01128215828EE991E091838083108681
:10329000618781E0411101C080E0828781E02111D6
:1032A00001C080E083870895FC01228521110AC0B6
:1032B00060E0FC0181850E94D40685E090E00E94D8
:1032C0006C05089562E081850E94D40685E090E057
:1032D0000E946C050895CF93DF93EC0188858111DE
:1032E00005C081E08887CE010E94541989850E941B
:1032F0004B072B8530E041E08217930721F0842FA4
:10330000DF91CF91089540E0842FDF91CF91089510
:103310001F920F920FB60F9211242F933F934F934A
:103320005F936F938F939F932CB130E035952795E2
:1033300035952795622F617083B190E095958795BB
:103340009595879595958795959587958227932748
:10335000482F41708091A1025091A20220919E02BB
:1033600030919F02842790E05627851B9109820F98
:10337000931F90939F0280939E028091A20290914E
:10338000A102481729F0691719F081E08093A00283
:103390004093A2026093A1029F918F916F915F91E0
:1033A0004F913F912F910F900FBE0F901F90189546
:1033B0002E98269A2D98259A2A98229A2998219A09
:1033C00080EA8093800081E18093810080E991E030
:1033D0009093870080938600109289001092880055
:1033E00010928B0010928A000895A2E0B0E0EBEFFB
:1033F000F9E10C940A262091A3022223F9F097FD0B
:1034000028C020E0813931E0930714F080E991E091
:1034100090938B0080938A008091A502281739F041
:103420002A9A229A2296E2E00C94262617C02A981D
:10343000229A2296E2E00C94262610C021E02093E6
:10344000A30289839A830E94D8199A81898197FF60
:10345000D8CF91958195910921E0D4CFA2E0B0E039
:10346000E4E3FAE10C940A262091A3022223F9F066
:1034700097FD28C020E0813931E0930714F080E9FE
:1034800091E090938900809388008091A40228178E
:1034900039F0299A219A2296E2E00C94262617C048
:1034A0002998219A2296E2E00C94262610C021E069
:1034B0002093A30289839A830E94D8199A818981D3
:1034C00097FFD8CF91958195910921E0D4CFCF93E3
:1034D000DF93EB010E94F519CE010E942E1ADF91B5
:1034E000CF910895CF93DF93EC0186E0E1E2F1E024
:1034F000DE01529601900D928A95E1F786E0E7E2AF
:10350000F1E0DE011C9601900D928A95E1F784E0CE
:1035100090E09A8F898F1CA61BA61DA6DF91CF91E4
:103520000895EF92FF921F93CF93DF931F92CDB731
:10353000DEB77C01162FFC01638D83E492E04983A2
:103540000E94A712612F83E492E00E9454124981E5
:10355000642F83E492E00E94541283E492E00E947C
:10356000C412F701808F0F90DF91CF911F91FF90D0
:10357000EF900895EF92FF921F93CF93DF931F92E6
:10358000CDB7DEB77C01162FFC01648D83E492E099
:1035900049830E94A712612F83E492E00E94541293
:1035A0004981642F83E492E00E94541283E492E004
:1035B0000E94C412F701808F0F90DF91CF911F916D
:1035C000FF90EF900895FC01218D328D233031055D
:1035D00011F0603218F40E94BA1A08950E94911AEC
:1035E0000895CF93DF93EC01898D9A8D83309105F7
:1035F00049F10297E1F040E063E2CE010E94911AA6
:1036000047E260E2CE010E94911A4CE060E0CE01F8
:103610000E94BA1A40E261E0CE010E94BA1A40E06C
:1036200062E0CE010E94BA1ADF91CF91089548E07E
:1036300063E2CE010E94911A47E460E2CE010E944B
:10364000911AE3CF40E061E2CE010E94E31A47E520
:1036500060E2CE010E94E31A44E664E2CE010E94D9
:10366000E31A40E265E2CE010E94E31A40E066E21E
:10367000CE010E94E31AD8CFA0E0B0E0E2E4FBE183
:103680000C940126EC016B8D83E492E00E94A7125A
:10369000E0914302F09144020190F081E02D68EA4C
:1036A00083E492E0099583E492E00E94C412888F3B
:1036B00046E06B8D83E492E00E9499120E9412050D
:1036C0008B0183E492E00E94F7110697ACF48BA57E
:1036D0009CA5892BB1F30E941205601B710B8BA571
:1036E0009CA58617970768F781E08DA7CDB7DEB751
:1036F000EBE00C941D2631C083E492E00E94FF11A0
:10370000A82E83E492E00E94FF11982E83E492E0B9
:103710000E94FF11082F83E492E00E94FF11B82E4F
:1037200083E492E00E94FF11182F83E492E00E944C
:10373000FF11D92CC12CCA28D982C882FB2CE12CBC
:10374000E02AFB82EA82982F8827812B9D838C8335
:10375000CDB7DEB7EBE00C941D26A0E0B0E0E3EBC4
:10376000FBE10C940426EC016C8D83E492E00E9452
:10377000A712898D9A8D039709F471C06F8D78A176
:10378000E0914302F09144020190F081E02D83E446
:1037900092E0099583E492E00E94C412888F46E08B
:1037A0006C8D83E492E00E9499120E9412058B01B5
:1037B00083E492E00E94F7110697ACF48BA59CA5D8
:1037C000892BB1F30E941205601B710B8BA59CA580
:1037D0008617970768F781E08DA7CDB7DEB7E8E0D9
:1037E0000C94202672C0898D9A8D039709F44EC0DF
:1037F00083E492E00E94FF11182F83E492E00E947C
:10380000FF11C82E298D3A8D83E492E0232B59F1C4
:103810000E94FF11082F83E492E00E94FF11F82E0E
:1038200083E492E00E94FF11E82E83E492E00E947C
:10383000FF11D82E6C2D70E0712B7F836E834D2D80
:1038400050E05E29598748872F2D30E0302B3B8789
:103850002A87CDB7DEB7E8E00C94202636C069A1F0
:103860007AA160688DCF0E94FF11E82E83E492E078
:103870000E94FF11D82E83E492E00E94FF11082FCE
:1038800083E492E00E94FF11F82ED4CF83E492E00B
:103890000E94FF11C82E83E492E00E94FF11182FAE
:1038A00083E492E00E94FF11D82E83E492E00E940C
:1038B000FF11E82E83E492E00E94FF11F82E83E4CA
:1038C00092E00E94FF11082FB5CFCF93DF93EC0158
:1038D0000E943C1BCE010E94AD1BDF91CF91089549
:1038E000A1E0B0E0E6E7FCE10C940926162F83E4A2
:1038F00092E049830E94A7124981642F83E492E0F9
:103900000E94541283E492E00E94C412811115C0F7
:1039100041E0612F83E492E00E94991283E492E0F7
:103920000E94F711892B49F083E492E00E94FF1175
:103930002196E3E00C94252606C08FEF9FEF219699
:10394000E3E00C942526EF92FF920F931F93CF9301
:10395000DF93EC018B017A016430710509F466C0D4
:103960004230510509F414C11A8F098F0130110535
:1039700009F4CEC07CF10230110509F4A6C0033071
:10398000110509F081C021E0E216F10409F4E2C05A
:103990008EE18C8F8B8F88E090E09AA389A389E0D9
:1039A00090E098A38F8F8AE090E09EA38DA38BE098
:1039B00090E09CA38BA38CE090E09AA789A78DE070
:1039C00090E098A78FA381E0CDB7DEB7E6E00C9436
:1039D0002226F6C00115110509F056C021E0E216B5
:1039E000F10409F4B5C088E18B8F8EE18C8F83E000
:1039F00090E098A38F8F84E090E09AA389A385E05C
:103A000090E09CA38BA386E090E09EA38DA387E02B
:103A100090E098A78FA388E090E09AA789A781E01B
:103A2000CDB7DEB7E6E00C942226CAC04115510599
:103A300009F07FC04FE050E06EE1CE010E94701CA3
:103A40008934910541F10430110549F5E114F1047F
:103A500061F540E250E068E1CE010E94701C0196E1
:103A600009F461C00430110509F484C0E12CF12C83
:103A700082E0E816F10409F077CF80E0CDB7DEB739
:103A8000E6E00C9422269CC081E0CDB7DEB7E6E0EC
:103A90000C94222695C0E12CF12C03E010E00330B9
:103AA000110530F7E114F104A1F240E250E069E1C0
:103AB000CE010E94701C019689F10430110509F4B1
:103AC0004BC0EE24E394F12CD3CF89E18B8F8EE1B0
:103AD0008C8F83E090E098A38F8F84E090E09AA38E
:103AE00089A387E090E09CA38BA388E090E09EA34D
:103AF0008DA385E090E098A78FA386E090E09AA739
:103B000089A781E0CDB7DEB7E6E00C94222658C045
:103B100081E0E816F104C9F288E1D8CF21E0E2168D
:103B2000F10409F096CF0430110509F0A1CF80E02F
:103B3000A5CF4FE050E06DE1CE010E94701C8934AA
:103B40009105A9F181E0E816F10409F47CCF72CF68
:103B500089E14ACF8DE11DCF4FE050E06EE1CE010B
:103B60000E94701CEE24E394F12CCC9731F100E01C
:103B700010E07ECF4FE050E06EE1CE010E94701C5D
:103B800031E020E0CC9709F030E0032F122F6ECF08
:103B9000CB010397029708F082CF4FE050E06DE130
:103BA000CE010E94701C8934910509F043CFEE24A8
:103BB000E394F12C03E010E072CF02E010E058CF64
:103BC000FC0183E090E09087878313861286148639
:103BD00008950E94612108950E940A22089508957F
:103BE000A0E0B0E0E6EFFDE10C9404266C01411585
:103BF0005105D1F08B01EA01E12CF12CD8016D9136
:103C00008D01D601ED91FC910190F081E02DC6016E
:103C10000995E80EF91E2197209781F7C701CDB7C6
:103C2000DEB7E8E00C942026E12CF12CF7CFDC0184
:103C3000ED91FC910190F081E02D099508950F938D
:103C40001F93CF93DF93EC01E881F9810190F0811C
:103C5000E02D6DE009958C01E881F9810190F081FA
:103C6000E02D6AE0CE010995800F911FDF91CF9181
:103C70001F910F9108950F931F93CF93DF93EC0142
:103C800061157105D1F0FB0101900020E9F7AF014A
:103C900041505109461B570BE881F9810280F3819D
:103CA000E02D09958C01CE010E941F1E800F911FEF
:103CB000DF91CF911F910F91089500E010E0F3CFB5
:103CC000FC0124853585F901E05CFF4F80819181FD
:103CD000329620813181821B930B8F73992708952F
:103CE000FC0184859585FC01E05CFF4F408151819A
:103CF0003296208131814217530741F00190F081C3
:103D0000E02DE80FF91F808190E008958FEF9FEF7D
:103D10000895FC0184859585FC01E05CFF4F40819E
:103D200051813296208131814217530779F0A08169
:103D3000B181A80FB91F8C91208131812F5F3F4F36
:103D40002F7333273183208390E008958FEF9FEF07
:103D50000895FC0181A1811102C011A20895A489D6
:103D6000B5898C9186FFFDCF11A20895CF93DF9383
:103D7000DC011E968D919C911F97EC01C05CDF4F7A
:103D8000488159814F5F5F4F4F735527FC01EE5BB0
:103D9000FF4F2081318124173507D9F3E881F9815C
:103DA000E80FF91F60831E96ED91FC911F97E05C70
:103DB000FF4F518340835696ED91FC915797208198
:103DC00081E090E05F960C905F9702C0880F991F8A
:103DD0000A94E2F7282B208381E091968C939197A7
:103DE0005496ED91FC91559780818064808381E0A9
:103DF00090E0DF91CF9108951F920F920FB60F922E
:103E000011242F933F934F938F939F93EF93FF939F
:103E10008091C80082FD27C04091CE0080914C0364
:103E200090914D0301968F73992720914E03309105
:103E30004F038217930759F0E0914C03F0914D0323
:103E4000E45FFC4F408390934D0380934C03FF91BC
:103E5000EF919F918F914F913F912F910F900FBEB6
:103E60000F901F9018958091CE00F1CF1F920F9266
:103E70000FB60F9211242F933F938F939F93EF933D
:103E8000FF93209108033091090380910A039091D8
:103E90000B0328173907F9F0E0910A03F0910B039F
:103EA000E853FD4F208180910A0390910B03019606
:103EB0008F73992790930B0380930A032093CE006E
:103EC000FF91EF919F918F913F912F910F900FBE96
:103ED0000F901F9018958091C9008F7D8093C90025
:103EE000EFCFCF92DF92EF92FF92CF93DF93EC016F
:103EF0006A017B01411581EE580761057105F9F0F2
:103F0000EC89FD8981E090E008A002C0880F991F2C
:103F10000A94E2F7808360E079E08DE390E0A70106
:103F200096010E9491252150310941095109569568
:103F3000479537952795211580E1380798F0EC894A
:103F4000FD89108260E874E88EE190E0A701960197
:103F50000E949125215031094109510956954795F3
:103F600037952795E889F9893083EA89FB89208389
:103F700019A2EE89FF89408181E090E09C010C8CC0
:103F800002C0220F331F0A94E2F7422B4083EE89CE
:103F9000FF8940819C010D8C02C0220F331F0A94BF
:103FA000E2F7422B4083EE89FF8940819C010E8C11
:103FB00002C0220F331F0A94E2F7422B4083EE899E
:103FC000FF8920810F8C02C0880F991F0A94E2F7A5
:103FD000809582238083DF91CF91FF90EF90DF90D7
:103FE000CF9008951092A9021092A80288EE93E053
:103FF000A0E0B0E08093AA029093AB02A093AC0241
:10400000B093AD0284EA91E09093A7028093A60258
:104010008CE093E09093B3028093B20288EC92E03C
:104020009093B5028093B4028DEC90E09093B70228
:104030008093B6028CEC90E09093B9028093B80222
:1040400088EC90E09093BB028093BA0289EC90E0F8
:104050009093BD028093BC028AEC90E09093BF02E3
:104060008093BE028EEC90E09093C1028093C002D8
:1040700084E08093C20283E08093C30287E0809350
:10408000C40285E08093C50281E08093C602089552
:10409000009709F40895BC0180E090E00E94852615
:1040A0000895A4E0B0E0E7E5F0E20C940A269B0155
:1040B000AC01611571058105910541F460E070E086
:1040C000CB012496E2E00C94262610C069833A8343
:1040D0004B835C830E94802629813A814B815C81DD
:1040E0000E94B3252496E2E00C9426266F927F92DC
:1040F0008F929F92AF92BF92CF92DF92EF92FF92F8
:104100000F931F93CF93DF938C01009709F4C2C0E4
:104110005C01A60EB71EAC0142505109A416B506AB
:1041200008F48AC0DA01ED90FC90E616F70608F074
:1041300044C04B018E189F08DC01AE0DBF1DE091FD
:104140005203F091530320E030E0309709F44EC061
:10415000C0E0D0E00DC0808191812817390708F4B4
:104160009C0182819381009709F440C0EF01FC011A
:10417000EA17FB0781F760807180630182E0C80E57
:10418000D11CC814D90438F3930128193909D9016D
:104190001296159708F068C082E0E80EF11CE60C54
:1041A000F71CDA01ED92FC92A280B380209709F40B
:1041B00082C0BB82AA82C8010AC0B5E0EB16F10436
:1041C00028F0C70104978617970730F5C801DF91DB
:1041D000CF911F910F91FF90EF90DF90CF90BF9004
:1041E000AF909F908F907F906F9008958091500333
:1041F00090915103A817B90711F1CB010E946121D9
:10420000EC010097C9F0A701B8010E947127C8010D
:104210000E940A22CE01DBCFE2E0EE1AF108E61A94
:10422000F70AD501ED92FD92CD01FA017183608309
:104230000E940A22C801CBCF80E090E0C8CF2617A9
:104240003707D8F680910001909101010097C9F0DD
:10425000A816B90688F7B0925103A0925003FA014C
:1042600071836083C801B3CF82819381D501139696
:104270009C938E9312972D933C93FA0171836083E4
:1042800095CF8DB79EB72091040130910501821B17
:10429000930BDECFCB01DF91CF911F910F91FF9058
:1042A000EF90DF90CF90BF90AF909F908F907F90D6
:1042B0006F900C946121B0925303A0925203C801F5
:1042C00086CFCF93DF93AC018230910508F470C0A4
:1042D000E0915203F09153033097A1F180E090E018
:1042E000A0E0B0E002C0DF01F90120813181241794
:1042F000350760F04217530709F44DC0009719F0D5
:104300002817390718F4C901BD01EF012281338153
:104310002115310541F70097A9F09C01241B350BAD
:104320002430310508F047C08A819B8161157105F1
:1043300009F466C0FB0193838283CE010296DF916C
:10434000CF9108958091500390915103009709F403
:104350004CC0209100013091010121153105E1F19E
:1043600082179307B0F5281B390B2417350788F1FE
:10437000BA016E5F7F4F2617370758F1680F791F14
:104380007093510360935003FC0141935193CF010B
:10439000DF91CF910895828193811097B1F11396A7
:1043A0009C938E931297CF010296DF91CF9108953F
:1043B00042E050E08DCFCE01820F931FFC0141936C
:1043C0005193CF012250310939832883DF91CF9156
:1043D000089580E090E0DCCF2DB73EB760910401F6
:1043E00070910501261B370BBBCF30910201209144
:1043F00003013093500320935103832F922FA9CFB1
:10440000909353038093520398CF909353038093D8
:104410005203C9CFCF93DF93009709F445C0DC0165
:10442000129713961C921E921297E0915203F091EC
:104430005303309709F45DC0EA17FB07C0F1EF01A1
:1044400020E030E01396DC93CE9312974D915C916F
:104450001197840F951FC817D90709F45DC021155E
:10446000310509F452C0E901BB83AA83899199916E
:10447000C80FD91FAC17BD0709F45DC0A0E0B0E0BC
:1044800002C0DF01FC01828193810097D1F7CF0147
:10449000029620813181820F931F20915003309129
:1044A000510328173907B9F0DF91CF910895C281E0
:1044B000D3819F012097B9F2CA17DB0718F64A810A
:1044C0005B819E014115510571F2EA01CA17DB07B4
:1044D00008F0B8CFF4CF109709F443C013961C929C
:1044E0001E921297F0935103E0935003DF91CF9106
:1044F00008952D913C911197280F391F80915003F9
:10450000909151038217930739F1B0935303A0930D
:104510005203DF91CF91089588819981840F951F6F
:10452000029611969C938E938A819B8113969C93FD
:104530008E93129794CF4D915C911197480F591F0C
:104540004E5F5F4FE9015983488312968D919C918C
:1045500013979B838A8392CFB0935103A093500308
:10456000A3CF1092530310925203BCCF5058BB27D5
:10457000AA270ED0B1C1A2D130F0A7D120F031F4DA
:104580009F3F11F41EF497C10EF4E095E7FB64C160
:10459000E92FB3D180F3BA17620773078407950731
:1045A00018F071F49EF5E2C10EF4E0950B2EBA2FCF
:1045B000A02D0B01B90190010C01CA01A001112429
:1045C000FF27591B99F0593F50F4503E68F11A16D5
:1045D000F040A22F232F342F4427585FF3CF469566
:1045E00037952795A795F0405395C9F77EF41F1688
:1045F000BA0B620B730B840BBAF09150A1F0FF0F52
:10460000BB1F661F771F881FC2F70EC0BA0F621F3D
:10461000731F841F48F4879577956795B795F7952D
:104620009E3F08F0B3CF9395880F08F09927EE0FBF
:10463000979587950895ECD008F481E008950CD003
:104640004BC143D140F03AD130F021F45F3F19F033
:1046500003C151118CC12FC150D198F39923C9F3D3
:104660005523B1F3951B550BBB27AA276217730778
:10467000840738F09F5F5F4F220F331F441FAA1F2C
:10468000A9F333D00E2E3AF0E0E830D091505040EC
:10469000E695001CCAF729D0FE2F27D0660F771F9A
:1046A000881FBB1F261737074807AB07B0E809F07C
:1046B000BB0B802DBF01FF2793585F4F2AF09E3F11
:1046C000510568F0C9C053C15F3FECF3983EDCF37D
:1046D000869577956795B795F7959F5FC9F7880F8A
:1046E000911D9695879597F90895E1E0660F771FDC
:1046F000881FBB1F621773078407BA0720F0621B6D
:10470000730B840BBA0BEE1F88F7E095089504D065
:104710006894B1112CC10895F8D088F09F5790F09B
:10472000B92F9927B751A0F0D1F0660F771F881FD6
:10473000991F1AF0BA95C9F712C0B13081F016D19D
:10474000B1E0089513C1672F782F8827B85F39F03B
:10475000B93FCCF3869577956795B395D9F73EF435
:1047600090958095709561957F4F8F4F9F4F0895DD
:10477000E89409C097FB3EF49095809570956195FB
:104780007F4F8F4F9F4F9923A9F0F92F96E9BB27B1
:104790009395F695879577956795B795F111F8CF2D
:1047A000FAF4BB0F11F460FF1BC06F5F7F4F8F4F98
:1047B0009F4F16C0882311F096E911C0772321F08E
:1047C0009EE8872F762F05C0662371F096E8862F26
:1047D00070E060E02AF09A95660F771F881FDAF77D
:1047E000880F9695879597F90895A9D080F09F37FF
:1047F00040F491110EF0BBC060E070E080E89FEBE8
:10480000089526F41B16611D711D811D2BC045C026
:10481000990F0008550FAA0BE0E8FEEF16161706D1
:10482000E807F907C0F012161306E407F50798F039
:10483000621B730B840B950B39F40A2661F0232B52
:10484000242B252B21F408950A2609F4A140A695CE
:104850008FEF811D811D089597F99F6780E870E0B3
:1048600060E00895882371F4772321F09850872B16
:10487000762F07C0662311F499270DC09051862B1F
:1048800070E060E02AF09A95660F771F881FDAF7CC
:10489000880F9695879597F908959F3F31F091502D
:1048A00020F4879577956795B795880F911D969514
:1048B000879597F908959FEF80EC089500240A9456
:1048C0001616170618060906089500240A941216EB
:1048D0001306140605060895092E0394000C11F41E
:1048E000882352F0BB0F40F4BF2B11F460FF04C0CB
:1048F0006F5F7F4F8F4F9F4F089557FD9058440F24
:10490000551F59F05F3F71F04795880F97FB991F2E
:1049100061F09F3F79F087950895121613061406EB
:10492000551FF2CF4695F1DF08C016161706180678
:10493000991FF1CF86957105610508940895E5DF0B
:10494000A0F0BEE7B91788F4BB279F3860F41616AD
:10495000B11D672F782F8827985FF7CF86957795B9
:104960006795B11D93959639C8F30895E894BB27D0
:1049700066277727CB0197F908954ADF08F48FEF70
:1049800008950BD0A9CF9ADF28F09FDF18F0952368
:1049900009F062CF90CF1124EACFAFDFA0F3959F4B
:1049A000D1F3950F50E0551F629FF001729FBB2716
:1049B000F00DB11D639FAA27F00DB11DAA1F649FC2
:1049C0006627B00DA11D661F829F2227B00DA11D75
:1049D000621F739FB00DA11D621F839FA00D611DFB
:1049E000221F749F3327A00D611D231F849F600D1C
:1049F000211D822F762F6A2F11249F5750408AF055
:104A0000E1F088234AF0EE0FFF1FBB1F661F771FE0
:104A1000881F91505040A9F79E3F510570F01CCF60
:104A2000A6CF5F3FECF3983EDCF3869577956795CC
:104A3000B795F795E7959F5FC1F7FE2B880F911DFE
:104A40009695879597F9089511F40EF434CF25CFF4
:104A50005CDFD0F39923D9F3CEF39F57550B87FF33
:104A600035D00024A0E640EA9001805856959795ED
:104A700028F4805C660F771F881F20F02617370701
:104A8000480730F4621B730B840B202931294A2B11
:104A9000A69517940794202531254A2758F7660FC5
:104AA000771F881F20F026173707480730F4620B5E
:104AB000730B840B200D311D411DA09581F7B901A9
:104AC000842F9158880F969587950895915050405E
:104AD000660F771F881FD2F70895DB018F939F938E
:104AE0000E94E725BF91AF91A29F800D911DA39FCA
:104AF000900DB29F900D11240895AA1BBB1B51E18C
:104B000007C0AA1FBB1FA617B70710F0A61BB70B3D
:104B1000881F991F5A95A9F780959095BC01CD01E2
:104B20000895A1E21A2EAA1BBB1BFD010DC0AA1FEE
:104B3000BB1FEE1FFF1FA217B307E407F50720F006
:104B4000A21BB30BE40BF50B661F771F881F991F81
:104B50001A9469F760957095809590959B01AC01CA
:104B6000BD01CF010895052E97FB1EF400940E940D
:104B7000CA2557FD07D00E94912507FC03D04EF4AB
:104B80000C94CA2550954095309521953F4F4F4F35
:104B90005F4F089590958095709561957F4F8F4FE9
:104BA0009F4F0895EE0FFF1F0590F491E02D09949B
:104BB000A29FB001B39FC001A39F700D811D11245E
:104BC000911DB29F700D811D1124911D08950E94A9
:104BD000D825A59F900DB49F900DA49F800D911D89
:104BE00011240895B7FF0C94E7250E94E725821B46
:104BF000930B08952F923F924F925F926F927F9204
:104C00008F929F92AF92BF92CF92DF92EF92FF92DC
:104C10000F931F93CF93DF93CDB7DEB7CA1BDB0B88
:104C20000FB6F894DEBF0FBECDBF09942A8839882D
:104C300048885F846E847D848C849B84AA84B98434
:104C4000C884DF80EE80FD800C811B81AA81B98140
:104C5000CE0FD11D0FB6F894DEBF0FBECDBFED0154
:104C600008958F929F92AF92BF92CF92DF92EF9270
:104C7000FF92CF93DF93EC01688179818A819B81D8
:104C8000611571058105910521F464E279ED8BE5EB
:104C900097E02DE133EF41E050E00E94B325490158
:104CA0005A019B01AC01A7EAB1E40E94E7256B0120
:104CB0007C01ACEEB4EFA50194010E94F525C60E6F
:104CC000D71EE81EF91EF7FE06C081E0C81AD108FB
:104CD000E10880E8F80AC882D982EA82FB82C7012B
:104CE000B6019F77DF91CF91FF90EF90DF90CF904B
:104CF000BF90AF909F908F9008950E9431260895A5
:104D000087E091E00E943126089560930701709337
:104D100008018093090190930A010895283008F052
:104D200027E03327DA01990F311D87FD9160009646
:104D30006105710539F432602E5F3D9330E32A95A9
:104D4000E1F708959F3F30F080387105610509F063
:104D50003C5F3C5F3D93913008F08068911DDF938C
:104D6000CF931F930F93FF92EF92192F987F9695F1
:104D7000E92F96959695E90FFF27EC5EFB4F992753
:104D80003327EE24FF24A701E70105900894079438
:104D900028F4360FE71EF81E491F511D660F771FB6
:104DA000881F991F0694A1F70590079428F4E70E31
:104DB000F81E491F561FC11D770F881F991F661FB8
:104DC0000694A1F70590079428F4F80E491F561F82
:104DD000C71FD11D880F991F661F771F0694A1F763
:104DE0000590079420F4490F561FC71FD81F990F2D
:104DF000661F771F881F0694A9F784911095177076
:104E000041F0D695C79557954795F794E7941A952D
:104E1000C1F7EAEBF3E0689415901591359165912F
:104E2000959105907FE27395E118F10A430B560BBB
:104E3000C90BD009C0F7E10CF11E431F561FC91F53
:104E4000D01D7EF4703311F48A95E6CFE8940150BA
:104E500030F0080F0AF40027021708F4202F2395DA
:104E6000022F7A3328F079E37D932A95E9F710C071
:104E70007D932A9589F606949795679537951795AA
:104E80001794E118F10A430B560BC90BD00998F09F
:104E900023957E9173957A3308F070E37C93201309
:104EA000B8F77E9170617D9330F0839571E37D93C7
:104EB00070E32A95E1F71124EF90FF900F911F9175
:104EC000CF91DF91992787FD90950895FC0105907A
:104ED000615070400110D8F7809590958E0F9F1FFC
:104EE0000895FB01DC0102C001900D924150504039
:104EF000D8F70895FC016150704001900110D8F777
:104F0000809590958E0F9F1F08950F931F93CF93B9
:104F1000DF93182F092FEB018B8181FD03C08FEFE9
:104F20009FEF20C082FF10C04E815F812C813D81A8
:104F3000421753077CF4E881F9819F012F5F3F4FAF
:104F400039832883108306C0E885F985812F099568
:104F5000892B29F72E813F812F5F3F4F3F832E837F
:104F6000812F902FDF91CF911F910F910895AEE087
:104F7000B0E0EDEBF7E20C9408260D891E8986E07F
:104F80008C831A8309838FEF9FE79E838D83AE0105
:104F9000475E5F4F6F89788DCE0101960E94CD08E4
:104FA000EF81F885E00FF11F10822E96E4E00C945B
:104FB0002426FA01AA27283051F1203181F1E89402
:104FC0006F936E7F6E5F7F4F8F4F9F4FAF4FB1E0FC
:104FD0003ED0B4E03CD0670F781F891F9A1FA11DF7
:104FE000680F791F8A1F911DA11D6A0F711D811DF8
:104FF000911DA11D20D009F468943F912AE0269FBD
:1050000011243019305D3193DEF6CF010895462F1B
:105010004770405D4193B3E00FD0C9F7F6CF462FFC
:105020004F70405D4A3318F0495D31FD4052419365
:1050300002D0A9F7EACFB4E0A69597958795779522
:105040006795BA95C9F700976105710508959B01A9
:10505000AC010A2E06945795479537952795BA9532
:10506000C9F7620F731F841F951FA01D0895F89440
:02507000FFCF70
:1050720000005403800001010000000F00F401044D
:1050820000D007040104000F00200037005500780B
:1050920000018001800180FF7FFF7FFF7F00000011
:1050A20000480C640CEF1DEF1D48696C6C436C6981
:1050B2003100000000002C0F340F440F550F25382B
:1050C2002E366600000000006B1900000000751308
:1050D2007C13F20FF50F0000000054122212F71198
:1050E200FF11121221120000000075137C13EF1D34
:1050F200EF1D9C01B501CF01EA010702260247021A
:1051020069028E02B502DE020A03000000006B197A
:1051120000000000B61EF01D601E891E701EA91E32
:00000001FF
